{
  "_format": "hh-sol-artifact-1",
  "contractName": "VendingMachine",
  "sourceName": "contracts/vendingmachine.sol",
  "abi": [
    {
      "inputs": [],
      "stateMutability": "nonpayable",
      "type": "constructor"
    },
    {
      "inputs": [
        {
          "internalType": "string",
          "name": "_name",
          "type": "string"
        },
        {
          "internalType": "uint256",
          "name": "_quantity",
          "type": "uint256"
        },
        {
          "internalType": "uint256",
          "name": "_priceInEther",
          "type": "uint256"
        }
      ],
      "name": "addProduct",
      "outputs": [],
      "stateMutability": "nonpayable",
      "type": "function"
    },
    {
      "inputs": [
        {
          "internalType": "uint256",
          "name": "_productId",
          "type": "uint256"
        }
      ],
      "name": "getProduct",
      "outputs": [
        {
          "internalType": "string",
          "name": "",
          "type": "string"
        },
        {
          "internalType": "uint256",
          "name": "",
          "type": "uint256"
        },
        {
          "internalType": "uint256",
          "name": "",
          "type": "uint256"
        }
      ],
      "stateMutability": "view",
      "type": "function"
    },
    {
      "inputs": [],
      "name": "owner",
      "outputs": [
        {
          "internalType": "address",
          "name": "",
          "type": "address"
        }
      ],
      "stateMutability": "view",
      "type": "function"
    },
    {
      "inputs": [],
      "name": "productCount",
      "outputs": [
        {
          "internalType": "uint256",
          "name": "",
          "type": "uint256"
        }
      ],
      "stateMutability": "view",
      "type": "function"
    },
    {
      "inputs": [
        {
          "internalType": "uint256",
          "name": "",
          "type": "uint256"
        }
      ],
      "name": "products",
      "outputs": [
        {
          "internalType": "string",
          "name": "name",
          "type": "string"
        },
        {
          "internalType": "uint256",
          "name": "quantity",
          "type": "uint256"
        },
        {
          "internalType": "uint256",
          "name": "price",
          "type": "uint256"
        }
      ],
      "stateMutability": "view",
      "type": "function"
    },
    {
      "inputs": [
        {
          "internalType": "uint256",
          "name": "_productId",
          "type": "uint256"
        },
        {
          "internalType": "uint256",
          "name": "_quantity",
          "type": "uint256"
        }
      ],
      "name": "purchaseProduct",
      "outputs": [],
      "stateMutability": "payable",
      "type": "function"
    },
    {
      "inputs": [
        {
          "internalType": "uint256",
          "name": "_productId",
          "type": "uint256"
        },
        {
          "internalType": "uint256",
          "name": "_additionalQuantity",
          "type": "uint256"
        }
      ],
      "name": "restockProduct",
      "outputs": [],
      "stateMutability": "nonpayable",
      "type": "function"
    },
    {
      "inputs": [],
      "name": "withdrawFunds",
      "outputs": [],
      "stateMutability": "nonpayable",
      "type": "function"
    }
  ],
  "bytecode": "0x608060405234801561001057600080fd5b50336000806101000a81548173ffffffffffffffffffffffffffffffffffffffff021916908373ffffffffffffffffffffffffffffffffffffffff1602179055506111b3806100606000396000f3fe60806040526004361061007b5760003560e01c80638da5cb5b1161004e5780638da5cb5b14610128578063a044042614610153578063b9db15b41461016f578063e0f6ef87146101ae5761007b565b8063125b0b341461008057806324600fc3146100a957806362f14dd0146100c05780637acc0b20146100e9575b600080fd5b34801561008c57600080fd5b506100a760048036038101906100a29190610989565b6101d9565b005b3480156100b557600080fd5b506100be6102e1565b005b3480156100cc57600080fd5b506100e760048036038101906100e291906109f8565b6103d8565b005b3480156100f557600080fd5b50610110600480360381019061010b9190610a38565b6104e8565b60405161011f93929190610af3565b60405180910390f35b34801561013457600080fd5b5061013d61059a565b60405161014a9190610b72565b60405180910390f35b61016d600480360381019061016891906109f8565b6105be565b005b34801561017b57600080fd5b5061019660048036038101906101919190610a38565b610709565b6040516101a593929190610af3565b60405180910390f35b3480156101ba57600080fd5b506101c36107f3565b6040516101d09190610b8d565b60405180910390f35b60008054906101000a900473ffffffffffffffffffffffffffffffffffffffff1673ffffffffffffffffffffffffffffffffffffffff163373ffffffffffffffffffffffffffffffffffffffff1614610267576040517f08c379a000000000000000000000000000000000000000000000000000000000815260040161025e90610c1a565b60405180910390fd5b6002600081548092919061027a90610c69565b919050555060405180606001604052808481526020018381526020018281525060016000600254815260200190815260200160002060008201518160000190816102c49190610ebd565b506020820151816001015560408201518160020155905050505050565b60008054906101000a900473ffffffffffffffffffffffffffffffffffffffff1673ffffffffffffffffffffffffffffffffffffffff163373ffffffffffffffffffffffffffffffffffffffff161461036f576040517f08c379a000000000000000000000000000000000000000000000000000000000815260040161036690610c1a565b60405180910390fd5b60008054906101000a900473ffffffffffffffffffffffffffffffffffffffff1673ffffffffffffffffffffffffffffffffffffffff166108fc479081150290604051600060405180830381858888f193505050501580156103d5573d6000803e3d6000fd5b50565b60008054906101000a900473ffffffffffffffffffffffffffffffffffffffff1673ffffffffffffffffffffffffffffffffffffffff163373ffffffffffffffffffffffffffffffffffffffff1614610466576040517f08c379a000000000000000000000000000000000000000000000000000000000815260040161045d90610c1a565b60405180910390fd5b60008211801561047857506002548211155b6104b7576040517f08c379a00000000000000000000000000000000000000000000000000000000081526004016104ae90610fdb565b60405180910390fd5b806001600084815260200190815260200160002060010160008282546104dd9190610ffb565b925050819055505050565b600160205280600052604060002060009150905080600001805461050b90610ce0565b80601f016020809104026020016040519081016040528092919081815260200182805461053790610ce0565b80156105845780601f1061055957610100808354040283529160200191610584565b820191906000526020600020905b81548152906001019060200180831161056757829003601f168201915b5050505050908060010154908060020154905083565b60008054906101000a900473ffffffffffffffffffffffffffffffffffffffff1681565b6000600160008481526020019081526020016000209050818160010154101561061c576040517f08c379a00000000000000000000000000000000000000000000000000000000081526004016106139061107b565b60405180910390fd5b6000670de0b6b3a7640000838360020154610637919061109b565b610641919061109b565b905080341015610686576040517f08c379a000000000000000000000000000000000000000000000000000000000815260040161067d90611129565b60405180910390fd5b8282600101600082825461069a9190611149565b92505081905550600081346106af9190611149565b90506000811115610702573373ffffffffffffffffffffffffffffffffffffffff166108fc829081150290604051600060405180830381858888f19350505050158015610700573d6000803e3d6000fd5b505b5050505050565b606060008060006001600086815260200190815260200160002060405180606001604052908160008201805461073e90610ce0565b80601f016020809104026020016040519081016040528092919081815260200182805461076a90610ce0565b80156107b75780601f1061078c576101008083540402835291602001916107b7565b820191906000526020600020905b81548152906001019060200180831161079a57829003601f168201915b50505050508152602001600182015481526020016002820154815250509050806000015181602001518260400151935093509350509193909250565b60025481565b6000604051905090565b600080fd5b600080fd5b600080fd5b600080fd5b6000601f19601f8301169050919050565b7f4e487b7100000000000000000000000000000000000000000000000000000000600052604160045260246000fd5b61086082610817565b810181811067ffffffffffffffff8211171561087f5761087e610828565b5b80604052505050565b60006108926107f9565b905061089e8282610857565b919050565b600067ffffffffffffffff8211156108be576108bd610828565b5b6108c782610817565b9050602081019050919050565b82818337600083830152505050565b60006108f66108f1846108a3565b610888565b90508281526020810184848401111561091257610911610812565b5b61091d8482856108d4565b509392505050565b600082601f83011261093a5761093961080d565b5b813561094a8482602086016108e3565b91505092915050565b6000819050919050565b61096681610953565b811461097157600080fd5b50565b6000813590506109838161095d565b92915050565b6000806000606084860312156109a2576109a1610803565b5b600084013567ffffffffffffffff8111156109c0576109bf610808565b5b6109cc86828701610925565b93505060206109dd86828701610974565b92505060406109ee86828701610974565b9150509250925092565b60008060408385031215610a0f57610a0e610803565b5b6000610a1d85828601610974565b9250506020610a2e85828601610974565b9150509250929050565b600060208284031215610a4e57610a4d610803565b5b6000610a5c84828501610974565b91505092915050565b600081519050919050565b600082825260208201905092915050565b60005b83811015610a9f578082015181840152602081019050610a84565b60008484015250505050565b6000610ab682610a65565b610ac08185610a70565b9350610ad0818560208601610a81565b610ad981610817565b840191505092915050565b610aed81610953565b82525050565b60006060820190508181036000830152610b0d8186610aab565b9050610b1c6020830185610ae4565b610b296040830184610ae4565b949350505050565b600073ffffffffffffffffffffffffffffffffffffffff82169050919050565b6000610b5c82610b31565b9050919050565b610b6c81610b51565b82525050565b6000602082019050610b876000830184610b63565b92915050565b6000602082019050610ba26000830184610ae4565b92915050565b7f4f6e6c79206f776e65722063616e20706572666f726d2074686973206163746960008201527f6f6e000000000000000000000000000000000000000000000000000000000000602082015250565b6000610c04602283610a70565b9150610c0f82610ba8565b604082019050919050565b60006020820190508181036000830152610c3381610bf7565b9050919050565b7f4e487b7100000000000000000000000000000000000000000000000000000000600052601160045260246000fd5b6000610c7482610953565b91507fffffffffffffffffffffffffffffffffffffffffffffffffffffffffffffffff8203610ca657610ca5610c3a565b5b600182019050919050565b7f4e487b7100000000000000000000000000000000000000000000000000000000600052602260045260246000fd5b60006002820490506001821680610cf857607f821691505b602082108103610d0b57610d0a610cb1565b5b50919050565b60008190508160005260206000209050919050565b60006020601f8301049050919050565b600082821b905092915050565b600060088302610d737fffffffffffffffffffffffffffffffffffffffffffffffffffffffffffffffff82610d36565b610d7d8683610d36565b95508019841693508086168417925050509392505050565b6000819050919050565b6000610dba610db5610db084610953565b610d95565b610953565b9050919050565b6000819050919050565b610dd483610d9f565b610de8610de082610dc1565b848454610d43565b825550505050565b600090565b610dfd610df0565b610e08818484610dcb565b505050565b5b81811015610e2c57610e21600082610df5565b600181019050610e0e565b5050565b601f821115610e7157610e4281610d11565b610e4b84610d26565b81016020851015610e5a578190505b610e6e610e6685610d26565b830182610e0d565b50505b505050565b600082821c905092915050565b6000610e9460001984600802610e76565b1980831691505092915050565b6000610ead8383610e83565b9150826002028217905092915050565b610ec682610a65565b67ffffffffffffffff811115610edf57610ede610828565b5b610ee98254610ce0565b610ef4828285610e30565b600060209050601f831160018114610f275760008415610f15578287015190505b610f1f8582610ea1565b865550610f87565b601f198416610f3586610d11565b60005b82811015610f5d57848901518255600182019150602085019450602081019050610f38565b86831015610f7a5784890151610f76601f891682610e83565b8355505b6001600288020188555050505b505050505050565b7f50726f6475637420646f6573206e6f7420657869737400000000000000000000600082015250565b6000610fc5601683610a70565b9150610fd082610f8f565b602082019050919050565b60006020820190508181036000830152610ff481610fb8565b9050919050565b600061100682610953565b915061101183610953565b925082820190508082111561102957611028610c3a565b5b92915050565b7f496e73756666696369656e742073746f636b0000000000000000000000000000600082015250565b6000611065601283610a70565b91506110708261102f565b602082019050919050565b6000602082019050818103600083015261109481611058565b9050919050565b60006110a682610953565b91506110b183610953565b92508282026110bf81610953565b915082820484148315176110d6576110d5610c3a565b5b5092915050565b7f496e73756666696369656e742066756e64730000000000000000000000000000600082015250565b6000611113601283610a70565b915061111e826110dd565b602082019050919050565b6000602082019050818103600083015261114281611106565b9050919050565b600061115482610953565b915061115f83610953565b925082820390508181111561117757611176610c3a565b5b9291505056fea2646970667358221220b1cbf7238dcd3b862f9b9ea6f1f31d94d81ea863dab29c53c3761845258c408764736f6c63430008110033",
  "linkReferences": {},
  "deployedLinkReferences": {}
}